{
  "contractName": "DataCollection",
  "abi": [
    {
      "inputs": [
        {
          "internalType": "bytes32",
          "name": "",
          "type": "bytes32"
        }
      ],
      "name": "mapData",
      "outputs": [
        {
          "internalType": "uint256",
          "name": "product_id",
          "type": "uint256"
        },
        {
          "internalType": "uint256",
          "name": "user_id",
          "type": "uint256"
        },
        {
          "internalType": "uint256",
          "name": "count",
          "type": "uint256"
        }
      ],
      "stateMutability": "view",
      "type": "function",
      "constant": true
    },
    {
      "inputs": [
        {
          "internalType": "uint256",
          "name": "product_id",
          "type": "uint256"
        },
        {
          "internalType": "uint256",
          "name": "user_id",
          "type": "uint256"
        },
        {
          "internalType": "string",
          "name": "input",
          "type": "string"
        },
        {
          "internalType": "uint256",
          "name": "timestamp",
          "type": "uint256"
        }
      ],
      "name": "addDataCollected",
      "outputs": [],
      "stateMutability": "nonpayable",
      "type": "function"
    },
    {
      "inputs": [
        {
          "internalType": "uint256",
          "name": "product_id",
          "type": "uint256"
        },
        {
          "internalType": "uint256",
          "name": "user_id",
          "type": "uint256"
        }
      ],
      "name": "readDataCount",
      "outputs": [
        {
          "internalType": "uint256",
          "name": "",
          "type": "uint256"
        }
      ],
      "stateMutability": "view",
      "type": "function",
      "constant": true
    },
    {
      "inputs": [
        {
          "internalType": "uint256",
          "name": "product_id",
          "type": "uint256"
        },
        {
          "internalType": "uint256",
          "name": "user_id",
          "type": "uint256"
        },
        {
          "internalType": "uint256",
          "name": "count",
          "type": "uint256"
        }
      ],
      "name": "readDataTimestamp",
      "outputs": [
        {
          "internalType": "uint256",
          "name": "",
          "type": "uint256"
        }
      ],
      "stateMutability": "view",
      "type": "function",
      "constant": true
    },
    {
      "inputs": [
        {
          "internalType": "uint256",
          "name": "product_id",
          "type": "uint256"
        },
        {
          "internalType": "uint256",
          "name": "user_id",
          "type": "uint256"
        },
        {
          "internalType": "uint256",
          "name": "count",
          "type": "uint256"
        }
      ],
      "name": "readDataType",
      "outputs": [
        {
          "internalType": "string",
          "name": "",
          "type": "string"
        }
      ],
      "stateMutability": "view",
      "type": "function",
      "constant": true
    }
  ],
  "bytecode": "0x608060405234801561001057600080fd5b50610a54806100206000396000f3fe608060405234801561001057600080fd5b50600436106100575760003560e01c8063193584a81461005c57806387c35be7146100f35780638bf4e44c14610143578063bcb5755b146101fe578063bd3a48c014610254575b600080fd5b6100f16004803603608081101561007257600080fd5b810190808035906020019092919080359060200190929190803590602001906401000000008111156100a357600080fd5b8201836020820111156100b557600080fd5b803590602001918460018302840111640100000000831117156100d757600080fd5b9091929391929390803590602001909291905050506102a0565b005b61011f6004803603602081101561010957600080fd5b8101908080359060200190929190505050610568565b60405180848152602001838152602001828152602001935050505060405180910390f35b6101836004803603606081101561015957600080fd5b81019080803590602001909291908035906020019092919080359060200190929190505050610592565b6040518080602001828103825283818151815260200191508051906020019080838360005b838110156101c35780820151818401526020810190506101a8565b50505050905090810190601f1680156101f05780820380516001836020036101000a031916815260200191505b509250505060405180910390f35b61023e6004803603606081101561021457600080fd5b81019080803590602001909291908035906020019092919080359060200190929190505050610694565b6040518082815260200191505060405180910390f35b61028a6004803603604081101561026a57600080fd5b8101908080359060200190929190803590602001909291905050506106fd565b6040518082815260200191505060405180910390f35b600085856040516020018083815260200182815260200192505050604051602081830303815290604052805190602001209050600080600083815260200190815260200160002060030154905061030160018261075090919063ffffffff16565b9050600080600084815260200190815260200160002060040190508084908060018154018082558091505060019003906000526020600020016000909190919091505560008060008581526020019081526020016000206002019050808787909180600181540180825580915050600190039060005260206000200160009091929091929091929091925091906103999291906107d8565b506040518060a001604052808a815260200189815260200182805480602002602001604051908101604052809291908181526020016000905b8282101561048e578382906000526020600020018054600181600116156101000203166002900480601f01602080910402602001604051908101604052809291908181526020018280546001816001161561010002031660029004801561047a5780601f1061044f5761010080835404028352916020019161047a565b820191906000526020600020905b81548152906001019060200180831161045d57829003601f168201915b5050505050815260200190600101906103d2565b505050508152602001848152602001838054806020026020016040519081016040528092919081815260200182805480156104e857602002820191906000526020600020905b8154815260200190600101908083116104d4575b505050505081525060008086815260200190815260200160002060008201518160000155602082015181600101556040820151816002019080519060200190610532929190610858565b506060820151816003015560808201518160040190805190602001906105599291906108b8565b50905050505050505050505050565b60006020528060005260406000206000915090508060000154908060010154908060030154905083565b606060008484604051602001808381526020018281526020019250505060405160208183030381529060405280519060200120905060008082815260200190815260200160002060020183815481106105e757fe5b906000526020600020018054600181600116156101000203166002900480601f0160208091040260200160405190810160405280929190818152602001828054600181600116156101000203166002900480156106855780601f1061065a57610100808354040283529160200191610685565b820191906000526020600020905b81548152906001019060200180831161066857829003601f168201915b50505050509150509392505050565b6000808484604051602001808381526020018281526020019250505060405160208183030381529060405280519060200120905060008082815260200190815260200160002060040183815481106106e857fe5b90600052602060002001549150509392505050565b600080838360405160200180838152602001828152602001925050506040516020818303038152906040528051906020012090506000808281526020019081526020016000206003015491505092915050565b6000808284019050838110156107ce576040517f08c379a000000000000000000000000000000000000000000000000000000000815260040180806020018281038252601b8152602001807f536166654d6174683a206164646974696f6e206f766572666c6f77000000000081525060200191505060405180910390fd5b8091505092915050565b828054600181600116156101000203166002900490600052602060002090601f016020900481019282601f1061081957803560ff1916838001178555610847565b82800160010185558215610847579182015b8281111561084657823582559160200191906001019061082b565b5b5090506108549190610905565b5090565b8280548282559060005260206000209081019282156108a7579160200282015b828111156108a657825182908051906020019061089692919061092a565b5091602001919060010190610878565b5b5090506108b491906109aa565b5090565b8280548282559060005260206000209081019282156108f4579160200282015b828111156108f35782518255916020019190600101906108d8565b5b5090506109019190610905565b5090565b61092791905b8082111561092357600081600090555060010161090b565b5090565b90565b828054600181600116156101000203166002900490600052602060002090601f016020900481019282601f1061096b57805160ff1916838001178555610999565b82800160010185558215610999579182015b8281111561099857825182559160200191906001019061097d565b5b5090506109a69190610905565b5090565b6109d391905b808211156109cf57600081816109c691906109d6565b506001016109b0565b5090565b90565b50805460018160011615610100020316600290046000825580601f106109fc5750610a1b565b601f016020900490600052602060002090810190610a1a9190610905565b5b5056fea264697066735822122025b90cf27b336184ed2a6fc2de9194a8d7060bad89c3cadf3feca46b385aa32664736f6c63430006000033",
  "source": "// SPDX-License-Identifier: MIT\n\npragma solidity ^0.6.0;\n\nimport \"./SafeMath.sol\";\n\ncontract DataCollection {\n    using SafeMath for uint256;\n\n    struct DataCollected {\n        uint256 product_id;\n\t\tuint256 user_id;\n\t\tstring[] types;\n\t\tuint256 count;\n\t\tuint256[] timestamps;\n    }\n\n    mapping (bytes32 => DataCollected) public mapData;\n\n    function addDataCollected(uint256 product_id,uint256 user_id,string calldata input,uint256 timestamp) external {\n\tbytes32 key=keccak256(abi.encodePacked(product_id, user_id));\n\tuint256 old_count=mapData[key].count;\n\told_count=old_count.add(1);\n\tuint256[] storage old_timestamps=mapData[key].timestamps;\n\told_timestamps.push(timestamp);\n\tstring[] storage old_types=mapData[key].types;\n\told_types.push(input);\n\t\n\tmapData[key]=DataCollected(product_id, user_id, old_types, old_count, old_timestamps);\n    }\n\n    function readDataCount(uint256 product_id,uint256 user_id) external view returns (uint256){\n\t\tbytes32 key=keccak256(abi.encodePacked(product_id, user_id));\n\treturn (mapData[key].count);\n    }\n\n    function readDataTimestamp(uint256 product_id,uint256 user_id,uint256 count) external view returns (uint256){\n    \tbytes32 key=keccak256(abi.encodePacked(product_id, user_id));\n\treturn (mapData[key].timestamps[count]);\n    }\n\n \tfunction readDataType(uint256 product_id,uint256 user_id,uint256 count) external view returns (string memory){\n    \tbytes32 key=keccak256(abi.encodePacked(product_id, user_id));\n\treturn (mapData[key].types[count]);\n    }\n}\n",
  "sourcePath": "/home/doris/Desktop/TH.0/contracts/DataCollection.sol",
  "compiler": {
    "name": "solc",
    "version": "0.6.0+commit.26b70077.Emscripten.clang"
  },
  "schemaVersion": "3.2.3",
  "updatedAt": "2020-11-15T07:24:10.707Z",
  "networkType": "ethereum",
  "devdoc": {
    "methods": {}
  },
  "userdoc": {
    "methods": {}
  }
}